{
	"data": {
		"bytecode": {
			"linkReferences": {},
			"object": "608060405234801561001057600080fd5b50610318806100206000396000f3fe608060405234801561001057600080fd5b506004361061002b5760003560e01c8063342a2d9a14610030575b600080fd5b61004a60048036038101906100459190610135565b610060565b60405161005791906102c7565b60405180910390f35b6100686100ba565b604051905060c0810160405260206004350160e06004350160005b60068110156100b1576020810283013560208202830135808201602084028701525050600181019050610083565b50505092915050565b60405180606001604052806003905b6100d16100e7565b8152602001906001900390816100c95790505090565b6040518060400160405280600290602082028036833780820191505090505090565b600080fd5b600080fd5b60008190508260406003028201111561012f5761012e61010e565b5b92915050565b600080610180838503121561014d5761014c610109565b5b600061015b85828601610113565b92505060c061016c85828601610113565b9150509250929050565b600060039050919050565b600081905092915050565b6000819050919050565b600060029050919050565b600081905092915050565b6000819050919050565b6000819050919050565b6101c9816101b6565b82525050565b60006101db83836101c0565b60208301905092915050565b6000602082019050919050565b6101fd81610196565b61020781846101a1565b9250610212826101ac565b8060005b8381101561024357815161022a87826101cf565b9650610235836101e7565b925050600181019050610216565b505050505050565b600061025783836101f4565b60408301905092915050565b6000602082019050919050565b61027981610176565b6102838184610181565b925061028e8261018c565b8060005b838110156102bf5781516102a6878261024b565b96506102b183610263565b925050600181019050610292565b505050505050565b600060c0820190506102dc6000830184610270565b9291505056fea2646970667358221220a174ed783b12cf4168e8ab556ce11d0e2651989955098148253626aea24d5c8864736f6c63430008110033",
			"opcodes": "PUSH1 0x80 PUSH1 0x40 MSTORE CALLVALUE DUP1 ISZERO PUSH2 0x10 JUMPI PUSH1 0x0 DUP1 REVERT JUMPDEST POP PUSH2 0x318 DUP1 PUSH2 0x20 PUSH1 0x0 CODECOPY PUSH1 0x0 RETURN INVALID PUSH1 0x80 PUSH1 0x40 MSTORE CALLVALUE DUP1 ISZERO PUSH2 0x10 JUMPI PUSH1 0x0 DUP1 REVERT JUMPDEST POP PUSH1 0x4 CALLDATASIZE LT PUSH2 0x2B JUMPI PUSH1 0x0 CALLDATALOAD PUSH1 0xE0 SHR DUP1 PUSH4 0x342A2D9A EQ PUSH2 0x30 JUMPI JUMPDEST PUSH1 0x0 DUP1 REVERT JUMPDEST PUSH2 0x4A PUSH1 0x4 DUP1 CALLDATASIZE SUB DUP2 ADD SWAP1 PUSH2 0x45 SWAP2 SWAP1 PUSH2 0x135 JUMP JUMPDEST PUSH2 0x60 JUMP JUMPDEST PUSH1 0x40 MLOAD PUSH2 0x57 SWAP2 SWAP1 PUSH2 0x2C7 JUMP JUMPDEST PUSH1 0x40 MLOAD DUP1 SWAP2 SUB SWAP1 RETURN JUMPDEST PUSH2 0x68 PUSH2 0xBA JUMP JUMPDEST PUSH1 0x40 MLOAD SWAP1 POP PUSH1 0xC0 DUP2 ADD PUSH1 0x40 MSTORE PUSH1 0x20 PUSH1 0x4 CALLDATALOAD ADD PUSH1 0xE0 PUSH1 0x4 CALLDATALOAD ADD PUSH1 0x0 JUMPDEST PUSH1 0x6 DUP2 LT ISZERO PUSH2 0xB1 JUMPI PUSH1 0x20 DUP2 MUL DUP4 ADD CALLDATALOAD PUSH1 0x20 DUP3 MUL DUP4 ADD CALLDATALOAD DUP1 DUP3 ADD PUSH1 0x20 DUP5 MUL DUP8 ADD MSTORE POP POP PUSH1 0x1 DUP2 ADD SWAP1 POP PUSH2 0x83 JUMP JUMPDEST POP POP POP SWAP3 SWAP2 POP POP JUMP JUMPDEST PUSH1 0x40 MLOAD DUP1 PUSH1 0x60 ADD PUSH1 0x40 MSTORE DUP1 PUSH1 0x3 SWAP1 JUMPDEST PUSH2 0xD1 PUSH2 0xE7 JUMP JUMPDEST DUP2 MSTORE PUSH1 0x20 ADD SWAP1 PUSH1 0x1 SWAP1 SUB SWAP1 DUP2 PUSH2 0xC9 JUMPI SWAP1 POP POP SWAP1 JUMP JUMPDEST PUSH1 0x40 MLOAD DUP1 PUSH1 0x40 ADD PUSH1 0x40 MSTORE DUP1 PUSH1 0x2 SWAP1 PUSH1 0x20 DUP3 MUL DUP1 CALLDATASIZE DUP4 CALLDATACOPY DUP1 DUP3 ADD SWAP2 POP POP SWAP1 POP POP SWAP1 JUMP JUMPDEST PUSH1 0x0 DUP1 REVERT JUMPDEST PUSH1 0x0 DUP1 REVERT JUMPDEST PUSH1 0x0 DUP2 SWAP1 POP DUP3 PUSH1 0x40 PUSH1 0x3 MUL DUP3 ADD GT ISZERO PUSH2 0x12F JUMPI PUSH2 0x12E PUSH2 0x10E JUMP JUMPDEST JUMPDEST SWAP3 SWAP2 POP POP JUMP JUMPDEST PUSH1 0x0 DUP1 PUSH2 0x180 DUP4 DUP6 SUB SLT ISZERO PUSH2 0x14D JUMPI PUSH2 0x14C PUSH2 0x109 JUMP JUMPDEST JUMPDEST PUSH1 0x0 PUSH2 0x15B DUP6 DUP3 DUP7 ADD PUSH2 0x113 JUMP JUMPDEST SWAP3 POP POP PUSH1 0xC0 PUSH2 0x16C DUP6 DUP3 DUP7 ADD PUSH2 0x113 JUMP JUMPDEST SWAP2 POP POP SWAP3 POP SWAP3 SWAP1 POP JUMP JUMPDEST PUSH1 0x0 PUSH1 0x3 SWAP1 POP SWAP2 SWAP1 POP JUMP JUMPDEST PUSH1 0x0 DUP2 SWAP1 POP SWAP3 SWAP2 POP POP JUMP JUMPDEST PUSH1 0x0 DUP2 SWAP1 POP SWAP2 SWAP1 POP JUMP JUMPDEST PUSH1 0x0 PUSH1 0x2 SWAP1 POP SWAP2 SWAP1 POP JUMP JUMPDEST PUSH1 0x0 DUP2 SWAP1 POP SWAP3 SWAP2 POP POP JUMP JUMPDEST PUSH1 0x0 DUP2 SWAP1 POP SWAP2 SWAP1 POP JUMP JUMPDEST PUSH1 0x0 DUP2 SWAP1 POP SWAP2 SWAP1 POP JUMP JUMPDEST PUSH2 0x1C9 DUP2 PUSH2 0x1B6 JUMP JUMPDEST DUP3 MSTORE POP POP JUMP JUMPDEST PUSH1 0x0 PUSH2 0x1DB DUP4 DUP4 PUSH2 0x1C0 JUMP JUMPDEST PUSH1 0x20 DUP4 ADD SWAP1 POP SWAP3 SWAP2 POP POP JUMP JUMPDEST PUSH1 0x0 PUSH1 0x20 DUP3 ADD SWAP1 POP SWAP2 SWAP1 POP JUMP JUMPDEST PUSH2 0x1FD DUP2 PUSH2 0x196 JUMP JUMPDEST PUSH2 0x207 DUP2 DUP5 PUSH2 0x1A1 JUMP JUMPDEST SWAP3 POP PUSH2 0x212 DUP3 PUSH2 0x1AC JUMP JUMPDEST DUP1 PUSH1 0x0 JUMPDEST DUP4 DUP2 LT ISZERO PUSH2 0x243 JUMPI DUP2 MLOAD PUSH2 0x22A DUP8 DUP3 PUSH2 0x1CF JUMP JUMPDEST SWAP7 POP PUSH2 0x235 DUP4 PUSH2 0x1E7 JUMP JUMPDEST SWAP3 POP POP PUSH1 0x1 DUP2 ADD SWAP1 POP PUSH2 0x216 JUMP JUMPDEST POP POP POP POP POP POP JUMP JUMPDEST PUSH1 0x0 PUSH2 0x257 DUP4 DUP4 PUSH2 0x1F4 JUMP JUMPDEST PUSH1 0x40 DUP4 ADD SWAP1 POP SWAP3 SWAP2 POP POP JUMP JUMPDEST PUSH1 0x0 PUSH1 0x20 DUP3 ADD SWAP1 POP SWAP2 SWAP1 POP JUMP JUMPDEST PUSH2 0x279 DUP2 PUSH2 0x176 JUMP JUMPDEST PUSH2 0x283 DUP2 DUP5 PUSH2 0x181 JUMP JUMPDEST SWAP3 POP PUSH2 0x28E DUP3 PUSH2 0x18C JUMP JUMPDEST DUP1 PUSH1 0x0 JUMPDEST DUP4 DUP2 LT ISZERO PUSH2 0x2BF JUMPI DUP2 MLOAD PUSH2 0x2A6 DUP8 DUP3 PUSH2 0x24B JUMP JUMPDEST SWAP7 POP PUSH2 0x2B1 DUP4 PUSH2 0x263 JUMP JUMPDEST SWAP3 POP POP PUSH1 0x1 DUP2 ADD SWAP1 POP PUSH2 0x292 JUMP JUMPDEST POP POP POP POP POP POP JUMP JUMPDEST PUSH1 0x0 PUSH1 0xC0 DUP3 ADD SWAP1 POP PUSH2 0x2DC PUSH1 0x0 DUP4 ADD DUP5 PUSH2 0x270 JUMP JUMPDEST SWAP3 SWAP2 POP POP JUMP INVALID LOG2 PUSH5 0x6970667358 0x22 SLT KECCAK256 LOG1 PUSH21 0xED783B12CF4168E8AB556CE11D0E26519899550981 BASEFEE 0x25 CALLDATASIZE 0x26 0xAE LOG2 0x4D 0x5C DUP9 PUSH5 0x736F6C6343 STOP ADDMOD GT STOP CALLER "
		},
		"gasEstimates": {
			"creation": {
				"codeDepositCost": "158400",
				"executionCost": "202",
				"totalCost": "158602"
			},
			"external": {
				"solution(uint256[2][3],uint256[2][3])": "infinite"
			}
		},
		"methodIdentifiers": {
			"solution(uint256[2][3],uint256[2][3])": "342a2d9a"
		}
	},
	"abi": [
		{
			"inputs": [
				{
					"internalType": "uint256[2][3]",
					"name": "x",
					"type": "uint256[2][3]"
				},
				{
					"internalType": "uint256[2][3]",
					"name": "y",
					"type": "uint256[2][3]"
				}
			],
			"name": "solution",
			"outputs": [
				{
					"internalType": "uint256[2][3]",
					"name": "result",
					"type": "uint256[2][3]"
				}
			],
			"stateMutability": "pure",
			"type": "function"
		}
	]
}