{
	"Homework/Homework 5/Assembly_4.sol": {
		"Scope": {
			"abi": [
				{
					"inputs": [],
					"name": "count",
					"outputs": [
						{
							"internalType": "uint256",
							"name": "",
							"type": "uint256"
						}
					],
					"stateMutability": "view",
					"type": "function"
				},
				{
					"inputs": [
						{
							"internalType": "uint256",
							"name": "num",
							"type": "uint256"
						}
					],
					"name": "increment",
					"outputs": [],
					"stateMutability": "nonpayable",
					"type": "function"
				}
			],
			"devdoc": {
				"kind": "dev",
				"methods": {},
				"version": 1
			},
			"evm": {
				"assembly": "    /* \"Homework/Homework 5/Assembly_4.sol\":60:615  contract Scope {\r... */\n  mstore(0x40, 0x80)\n    /* \"Homework/Homework 5/Assembly_4.sol\":105:107  10 */\n  0x0a\n    /* \"Homework/Homework 5/Assembly_4.sol\":82:107  uint256 public count = 10 */\n  0x00\n  sstore\n    /* \"Homework/Homework 5/Assembly_4.sol\":60:615  contract Scope {\r... */\n  callvalue\n  dup1\n  iszero\n  tag_1\n  jumpi\n  0x00\n  dup1\n  revert\ntag_1:\n  pop\n  dataSize(sub_0)\n  dup1\n  dataOffset(sub_0)\n  0x00\n  codecopy\n  0x00\n  return\nstop\n\nsub_0: assembly {\n        /* \"Homework/Homework 5/Assembly_4.sol\":60:615  contract Scope {\r... */\n      mstore(0x40, 0x80)\n      callvalue\n      dup1\n      iszero\n      tag_1\n      jumpi\n      0x00\n      dup1\n      revert\n    tag_1:\n      pop\n      jumpi(tag_2, lt(calldatasize, 0x04))\n      shr(0xe0, calldataload(0x00))\n      dup1\n      0x06661abd\n      eq\n      tag_3\n      jumpi\n      dup1\n      0x7cf5dab0\n      eq\n      tag_4\n      jumpi\n    tag_2:\n      0x00\n      dup1\n      revert\n        /* \"Homework/Homework 5/Assembly_4.sol\":82:107  uint256 public count = 10 */\n    tag_3:\n      tag_5\n      tag_6\n      jump\t// in\n    tag_5:\n      mload(0x40)\n      tag_7\n      swap2\n      swap1\n      tag_8\n      jump\t// in\n    tag_7:\n      mload(0x40)\n      dup1\n      swap2\n      sub\n      swap1\n      return\n        /* \"Homework/Homework 5/Assembly_4.sol\":116:612  function increment(uint256 num) public {\r... */\n    tag_4:\n      tag_9\n      0x04\n      dup1\n      calldatasize\n      sub\n      dup2\n      add\n      swap1\n      tag_10\n      swap2\n      swap1\n      tag_11\n      jump\t// in\n    tag_10:\n      tag_12\n      jump\t// in\n    tag_9:\n      stop\n        /* \"Homework/Homework 5/Assembly_4.sol\":82:107  uint256 public count = 10 */\n    tag_6:\n      sload(0x00)\n      dup2\n      jump\t// out\n        /* \"Homework/Homework 5/Assembly_4.sol\":116:612  function increment(uint256 num) public {\r... */\n    tag_12:\n        /* \"Homework/Homework 5/Assembly_4.sol\":378:379  0 */\n      0x00\n        /* \"Homework/Homework 5/Assembly_4.sol\":372:380  sload(0) */\n      sload\n        /* \"Homework/Homework 5/Assembly_4.sol\":488:491  num */\n      dup2\n        /* \"Homework/Homework 5/Assembly_4.sol\":474:486  currentValue */\n      dup2\n        /* \"Homework/Homework 5/Assembly_4.sol\":470:492  add(currentValue, num) */\n      add\n        /* \"Homework/Homework 5/Assembly_4.sol\":585:593  newValue */\n      dup1\n        /* \"Homework/Homework 5/Assembly_4.sol\":582:583  0 */\n      0x00\n        /* \"Homework/Homework 5/Assembly_4.sol\":575:594  sstore(0, newValue) */\n      sstore\n        /* \"Homework/Homework 5/Assembly_4.sol\":267:605  {\r... */\n      pop\n      pop\n      pop\n      jump\t// out\n        /* \"#utility.yul\":7:146   */\n    tag_15:\n        /* \"#utility.yul\":53:58   */\n      0x00\n        /* \"#utility.yul\":91:97   */\n      dup2\n        /* \"#utility.yul\":78:98   */\n      calldataload\n        /* \"#utility.yul\":69:98   */\n      swap1\n      pop\n        /* \"#utility.yul\":107:140   */\n      tag_17\n        /* \"#utility.yul\":134:139   */\n      dup2\n        /* \"#utility.yul\":107:140   */\n      tag_18\n      jump\t// in\n    tag_17:\n        /* \"#utility.yul\":59:146   */\n      swap3\n      swap2\n      pop\n      pop\n      jump\t// out\n        /* \"#utility.yul\":152:414   */\n    tag_11:\n        /* \"#utility.yul\":211:217   */\n      0x00\n        /* \"#utility.yul\":260:262   */\n      0x20\n        /* \"#utility.yul\":248:257   */\n      dup3\n        /* \"#utility.yul\":239:246   */\n      dup5\n        /* \"#utility.yul\":235:258   */\n      sub\n        /* \"#utility.yul\":231:263   */\n      slt\n        /* \"#utility.yul\":228:230   */\n      iszero\n      tag_20\n      jumpi\n        /* \"#utility.yul\":276:277   */\n      0x00\n        /* \"#utility.yul\":273:274   */\n      dup1\n        /* \"#utility.yul\":266:278   */\n      revert\n        /* \"#utility.yul\":228:230   */\n    tag_20:\n        /* \"#utility.yul\":319:320   */\n      0x00\n        /* \"#utility.yul\":344:397   */\n      tag_21\n        /* \"#utility.yul\":389:396   */\n      dup5\n        /* \"#utility.yul\":380:386   */\n      dup3\n        /* \"#utility.yul\":369:378   */\n      dup6\n        /* \"#utility.yul\":365:387   */\n      add\n        /* \"#utility.yul\":344:397   */\n      tag_15\n      jump\t// in\n    tag_21:\n        /* \"#utility.yul\":334:397   */\n      swap2\n      pop\n        /* \"#utility.yul\":290:407   */\n      pop\n        /* \"#utility.yul\":218:414   */\n      swap3\n      swap2\n      pop\n      pop\n      jump\t// out\n        /* \"#utility.yul\":420:538   */\n    tag_22:\n        /* \"#utility.yul\":507:531   */\n      tag_24\n        /* \"#utility.yul\":525:530   */\n      dup2\n        /* \"#utility.yul\":507:531   */\n      tag_25\n      jump\t// in\n    tag_24:\n        /* \"#utility.yul\":502:505   */\n      dup3\n        /* \"#utility.yul\":495:532   */\n      mstore\n        /* \"#utility.yul\":485:538   */\n      pop\n      pop\n      jump\t// out\n        /* \"#utility.yul\":544:766   */\n    tag_8:\n        /* \"#utility.yul\":637:641   */\n      0x00\n        /* \"#utility.yul\":675:677   */\n      0x20\n        /* \"#utility.yul\":664:673   */\n      dup3\n        /* \"#utility.yul\":660:678   */\n      add\n        /* \"#utility.yul\":652:678   */\n      swap1\n      pop\n        /* \"#utility.yul\":688:759   */\n      tag_27\n        /* \"#utility.yul\":756:757   */\n      0x00\n        /* \"#utility.yul\":745:754   */\n      dup4\n        /* \"#utility.yul\":741:758   */\n      add\n        /* \"#utility.yul\":732:738   */\n      dup5\n        /* \"#utility.yul\":688:759   */\n      tag_22\n      jump\t// in\n    tag_27:\n        /* \"#utility.yul\":642:766   */\n      swap3\n      swap2\n      pop\n      pop\n      jump\t// out\n        /* \"#utility.yul\":772:849   */\n    tag_25:\n        /* \"#utility.yul\":809:816   */\n      0x00\n        /* \"#utility.yul\":838:843   */\n      dup2\n        /* \"#utility.yul\":827:843   */\n      swap1\n      pop\n        /* \"#utility.yul\":817:849   */\n      swap2\n      swap1\n      pop\n      jump\t// out\n        /* \"#utility.yul\":855:977   */\n    tag_18:\n        /* \"#utility.yul\":928:952   */\n      tag_30\n        /* \"#utility.yul\":946:951   */\n      dup2\n        /* \"#utility.yul\":928:952   */\n      tag_25\n      jump\t// in\n    tag_30:\n        /* \"#utility.yul\":921:926   */\n      dup2\n        /* \"#utility.yul\":918:953   */\n      eq\n        /* \"#utility.yul\":908:910   */\n      tag_31\n      jumpi\n        /* \"#utility.yul\":967:968   */\n      0x00\n        /* \"#utility.yul\":964:965   */\n      dup1\n        /* \"#utility.yul\":957:969   */\n      revert\n        /* \"#utility.yul\":908:910   */\n    tag_31:\n        /* \"#utility.yul\":898:977   */\n      pop\n      jump\t// out\n\n    auxdata: 0xa26469706673582212206b5a187cfbcf44136ae88d400fc2c798920a1a8c879f2fe6a1ee8ddf05b4b8a964736f6c63430008040033\n}\n",
				"bytecode": {
					"linkReferences": {},
					"object": "6080604052600a60005534801561001557600080fd5b50610131806100256000396000f3fe6080604052348015600f57600080fd5b506004361060325760003560e01c806306661abd1460375780637cf5dab0146051575b600080fd5b603d6069565b6040516048919060c4565b60405180910390f35b60676004803603810190606391906091565b606f565b005b60005481565b60005481810180600055505050565b600081359050608b8160e7565b92915050565b60006020828403121560a257600080fd5b600060ae84828501607e565b91505092915050565b60be8160dd565b82525050565b600060208201905060d7600083018460b7565b92915050565b6000819050919050565b60ee8160dd565b811460f857600080fd5b5056fea26469706673582212206b5a187cfbcf44136ae88d400fc2c798920a1a8c879f2fe6a1ee8ddf05b4b8a964736f6c63430008040033",
					"opcodes": "PUSH1 0x80 PUSH1 0x40 MSTORE PUSH1 0xA PUSH1 0x0 SSTORE CALLVALUE DUP1 ISZERO PUSH2 0x15 JUMPI PUSH1 0x0 DUP1 REVERT JUMPDEST POP PUSH2 0x131 DUP1 PUSH2 0x25 PUSH1 0x0 CODECOPY PUSH1 0x0 RETURN INVALID PUSH1 0x80 PUSH1 0x40 MSTORE CALLVALUE DUP1 ISZERO PUSH1 0xF JUMPI PUSH1 0x0 DUP1 REVERT JUMPDEST POP PUSH1 0x4 CALLDATASIZE LT PUSH1 0x32 JUMPI PUSH1 0x0 CALLDATALOAD PUSH1 0xE0 SHR DUP1 PUSH4 0x6661ABD EQ PUSH1 0x37 JUMPI DUP1 PUSH4 0x7CF5DAB0 EQ PUSH1 0x51 JUMPI JUMPDEST PUSH1 0x0 DUP1 REVERT JUMPDEST PUSH1 0x3D PUSH1 0x69 JUMP JUMPDEST PUSH1 0x40 MLOAD PUSH1 0x48 SWAP2 SWAP1 PUSH1 0xC4 JUMP JUMPDEST PUSH1 0x40 MLOAD DUP1 SWAP2 SUB SWAP1 RETURN JUMPDEST PUSH1 0x67 PUSH1 0x4 DUP1 CALLDATASIZE SUB DUP2 ADD SWAP1 PUSH1 0x63 SWAP2 SWAP1 PUSH1 0x91 JUMP JUMPDEST PUSH1 0x6F JUMP JUMPDEST STOP JUMPDEST PUSH1 0x0 SLOAD DUP2 JUMP JUMPDEST PUSH1 0x0 SLOAD DUP2 DUP2 ADD DUP1 PUSH1 0x0 SSTORE POP POP POP JUMP JUMPDEST PUSH1 0x0 DUP2 CALLDATALOAD SWAP1 POP PUSH1 0x8B DUP2 PUSH1 0xE7 JUMP JUMPDEST SWAP3 SWAP2 POP POP JUMP JUMPDEST PUSH1 0x0 PUSH1 0x20 DUP3 DUP5 SUB SLT ISZERO PUSH1 0xA2 JUMPI PUSH1 0x0 DUP1 REVERT JUMPDEST PUSH1 0x0 PUSH1 0xAE DUP5 DUP3 DUP6 ADD PUSH1 0x7E JUMP JUMPDEST SWAP2 POP POP SWAP3 SWAP2 POP POP JUMP JUMPDEST PUSH1 0xBE DUP2 PUSH1 0xDD JUMP JUMPDEST DUP3 MSTORE POP POP JUMP JUMPDEST PUSH1 0x0 PUSH1 0x20 DUP3 ADD SWAP1 POP PUSH1 0xD7 PUSH1 0x0 DUP4 ADD DUP5 PUSH1 0xB7 JUMP JUMPDEST SWAP3 SWAP2 POP POP JUMP JUMPDEST PUSH1 0x0 DUP2 SWAP1 POP SWAP2 SWAP1 POP JUMP JUMPDEST PUSH1 0xEE DUP2 PUSH1 0xDD JUMP JUMPDEST DUP2 EQ PUSH1 0xF8 JUMPI PUSH1 0x0 DUP1 REVERT JUMPDEST POP JUMP INVALID LOG2 PUSH5 0x6970667358 0x22 SLT KECCAK256 PUSH12 0x5A187CFBCF44136AE88D400F 0xC2 0xC7 SWAP9 SWAP3 EXP BYTE DUP13 DUP8 SWAP16 0x2F 0xE6 LOG1 0xEE DUP14 0xDF SDIV 0xB4 0xB8 0xA9 PUSH5 0x736F6C6343 STOP ADDMOD DIV STOP CALLER "
				},
				"gasEstimates": {
					"creation": {
						"codeDepositCost": "61000",
						"executionCost": "20117",
						"totalCost": "81117"
					},
					"external": {
						"count()": "1107",
						"increment(uint256)": "21228"
					}
				},
				"methodIdentifiers": {
					"count()": "06661abd",
					"increment(uint256)": "7cf5dab0"
				}
			},
			"storageLayout": {
				"storage": [
					{
						"astId": 4,
						"contract": "Homework/Homework 5/Assembly_4.sol:Scope",
						"label": "count",
						"offset": 0,
						"slot": "0",
						"type": "t_uint256"
					}
				],
				"types": {
					"t_uint256": {
						"encoding": "inplace",
						"label": "uint256",
						"numberOfBytes": "32"
					}
				}
			},
			"userdoc": {
				"kind": "user",
				"methods": {},
				"version": 1
			}
		}
	}
}