{
	"Homework/Homework 5/Assembly_3.sol": {
		"SubOverflow": {
			"abi": [
				{
					"inputs": [
						{
							"internalType": "uint256",
							"name": "x",
							"type": "uint256"
						},
						{
							"internalType": "uint256",
							"name": "y",
							"type": "uint256"
						}
					],
					"name": "subtract",
					"outputs": [
						{
							"internalType": "uint256",
							"name": "",
							"type": "uint256"
						}
					],
					"stateMutability": "pure",
					"type": "function"
				}
			],
			"devdoc": {
				"kind": "dev",
				"methods": {},
				"version": 1
			},
			"evm": {
				"assembly": "    /* \"Homework/Homework 5/Assembly_3.sol\":60:662  contract SubOverflow {... */\n  mstore(0x40, 0x80)\n  callvalue\n  dup1\n  iszero\n  tag_1\n  jumpi\n  0x00\n  dup1\n  revert\ntag_1:\n  pop\n  dataSize(sub_0)\n  dup1\n  dataOffset(sub_0)\n  0x00\n  codecopy\n  0x00\n  return\nstop\n\nsub_0: assembly {\n        /* \"Homework/Homework 5/Assembly_3.sol\":60:662  contract SubOverflow {... */\n      mstore(0x40, 0x80)\n      callvalue\n      dup1\n      iszero\n      tag_1\n      jumpi\n      0x00\n      dup1\n      revert\n    tag_1:\n      pop\n      jumpi(tag_2, lt(calldatasize, 0x04))\n      shr(0xe0, calldataload(0x00))\n      dup1\n      0x3ef5e445\n      eq\n      tag_3\n      jumpi\n    tag_2:\n      0x00\n      dup1\n      revert\n        /* \"Homework/Homework 5/Assembly_3.sol\":194:659  function subtract(uint256 x, uint256 y) public pure returns (uint256) {... */\n    tag_3:\n      tag_4\n      0x04\n      dup1\n      calldatasize\n      sub\n      dup2\n      add\n      swap1\n      tag_5\n      swap2\n      swap1\n      tag_6\n      jump\t// in\n    tag_5:\n      tag_7\n      jump\t// in\n    tag_4:\n      mload(0x40)\n      tag_8\n      swap2\n      swap1\n      tag_9\n      jump\t// in\n    tag_8:\n      mload(0x40)\n      dup1\n      swap2\n      sub\n      swap1\n      return\n    tag_7:\n        /* \"Homework/Homework 5/Assembly_3.sol\":255:262  uint256 */\n      0x00\n        /* \"Homework/Homework 5/Assembly_3.sol\":362:363  y */\n      dup2\n        /* \"Homework/Homework 5/Assembly_3.sol\":359:360  x */\n      dup4\n        /* \"Homework/Homework 5/Assembly_3.sol\":356:364  lt(x, y) */\n      lt\n        /* \"Homework/Homework 5/Assembly_3.sol\":353:496  if lt(x, y) {... */\n      iszero\n      tag_11\n      jumpi\n        /* \"Homework/Homework 5/Assembly_3.sol\":446:447  0 */\n      0x00\n        /* \"Homework/Homework 5/Assembly_3.sol\":441:444  0x0 */\n      dup1\n        /* \"Homework/Homework 5/Assembly_3.sol\":434:448  mstore(0x0, 0) */\n      mstore\n        /* \"Homework/Homework 5/Assembly_3.sol\":478:480  32 */\n      0x20\n        /* \"Homework/Homework 5/Assembly_3.sol\":473:476  0x0 */\n      0x00\n        /* \"Homework/Homework 5/Assembly_3.sol\":466:481  return(0x0, 32) */\n      return\n        /* \"Homework/Homework 5/Assembly_3.sol\":353:496  if lt(x, y) {... */\n    tag_11:\n        /* \"Homework/Homework 5/Assembly_3.sol\":577:578  y */\n      dup2\n        /* \"Homework/Homework 5/Assembly_3.sol\":574:575  x */\n      dup4\n        /* \"Homework/Homework 5/Assembly_3.sol\":570:579  sub(x, y) */\n      sub\n        /* \"Homework/Homework 5/Assembly_3.sol\":605:611  result */\n      dup1\n        /* \"Homework/Homework 5/Assembly_3.sol\":600:603  0x0 */\n      0x00\n        /* \"Homework/Homework 5/Assembly_3.sol\":593:612  mstore(0x0, result) */\n      mstore\n        /* \"Homework/Homework 5/Assembly_3.sol\":638:640  32 */\n      0x20\n        /* \"Homework/Homework 5/Assembly_3.sol\":633:636  0x0 */\n      0x00\n        /* \"Homework/Homework 5/Assembly_3.sol\":626:641  return(0x0, 32) */\n      return\n        /* \"#utility.yul\":88:205   */\n    tag_13:\n        /* \"#utility.yul\":197:198   */\n      0x00\n        /* \"#utility.yul\":194:195   */\n      dup1\n        /* \"#utility.yul\":187:199   */\n      revert\n        /* \"#utility.yul\":334:411   */\n    tag_15:\n        /* \"#utility.yul\":371:378   */\n      0x00\n        /* \"#utility.yul\":400:405   */\n      dup2\n        /* \"#utility.yul\":389:405   */\n      swap1\n      pop\n        /* \"#utility.yul\":334:411   */\n      swap2\n      swap1\n      pop\n      jump\t// out\n        /* \"#utility.yul\":417:539   */\n    tag_16:\n        /* \"#utility.yul\":490:514   */\n      tag_25\n        /* \"#utility.yul\":508:513   */\n      dup2\n        /* \"#utility.yul\":490:514   */\n      tag_15\n      jump\t// in\n    tag_25:\n        /* \"#utility.yul\":483:488   */\n      dup2\n        /* \"#utility.yul\":480:515   */\n      eq\n        /* \"#utility.yul\":470:533   */\n      tag_26\n      jumpi\n        /* \"#utility.yul\":529:530   */\n      0x00\n        /* \"#utility.yul\":526:527   */\n      dup1\n        /* \"#utility.yul\":519:531   */\n      revert\n        /* \"#utility.yul\":470:533   */\n    tag_26:\n        /* \"#utility.yul\":417:539   */\n      pop\n      jump\t// out\n        /* \"#utility.yul\":545:684   */\n    tag_17:\n        /* \"#utility.yul\":591:596   */\n      0x00\n        /* \"#utility.yul\":629:635   */\n      dup2\n        /* \"#utility.yul\":616:636   */\n      calldataload\n        /* \"#utility.yul\":607:636   */\n      swap1\n      pop\n        /* \"#utility.yul\":645:678   */\n      tag_28\n        /* \"#utility.yul\":672:677   */\n      dup2\n        /* \"#utility.yul\":645:678   */\n      tag_16\n      jump\t// in\n    tag_28:\n        /* \"#utility.yul\":545:684   */\n      swap3\n      swap2\n      pop\n      pop\n      jump\t// out\n        /* \"#utility.yul\":690:1164   */\n    tag_6:\n        /* \"#utility.yul\":758:764   */\n      0x00\n        /* \"#utility.yul\":766:772   */\n      dup1\n        /* \"#utility.yul\":815:817   */\n      0x40\n        /* \"#utility.yul\":803:812   */\n      dup4\n        /* \"#utility.yul\":794:801   */\n      dup6\n        /* \"#utility.yul\":790:813   */\n      sub\n        /* \"#utility.yul\":786:818   */\n      slt\n        /* \"#utility.yul\":783:902   */\n      iszero\n      tag_30\n      jumpi\n        /* \"#utility.yul\":821:900   */\n      tag_31\n      tag_13\n      jump\t// in\n    tag_31:\n        /* \"#utility.yul\":783:902   */\n    tag_30:\n        /* \"#utility.yul\":941:942   */\n      0x00\n        /* \"#utility.yul\":966:1019   */\n      tag_32\n        /* \"#utility.yul\":1011:1018   */\n      dup6\n        /* \"#utility.yul\":1002:1008   */\n      dup3\n        /* \"#utility.yul\":991:1000   */\n      dup7\n        /* \"#utility.yul\":987:1009   */\n      add\n        /* \"#utility.yul\":966:1019   */\n      tag_17\n      jump\t// in\n    tag_32:\n        /* \"#utility.yul\":956:1019   */\n      swap3\n      pop\n        /* \"#utility.yul\":912:1029   */\n      pop\n        /* \"#utility.yul\":1068:1070   */\n      0x20\n        /* \"#utility.yul\":1094:1147   */\n      tag_33\n        /* \"#utility.yul\":1139:1146   */\n      dup6\n        /* \"#utility.yul\":1130:1136   */\n      dup3\n        /* \"#utility.yul\":1119:1128   */\n      dup7\n        /* \"#utility.yul\":1115:1137   */\n      add\n        /* \"#utility.yul\":1094:1147   */\n      tag_17\n      jump\t// in\n    tag_33:\n        /* \"#utility.yul\":1084:1147   */\n      swap2\n      pop\n        /* \"#utility.yul\":1039:1157   */\n      pop\n        /* \"#utility.yul\":690:1164   */\n      swap3\n      pop\n      swap3\n      swap1\n      pop\n      jump\t// out\n        /* \"#utility.yul\":1170:1288   */\n    tag_18:\n        /* \"#utility.yul\":1257:1281   */\n      tag_35\n        /* \"#utility.yul\":1275:1280   */\n      dup2\n        /* \"#utility.yul\":1257:1281   */\n      tag_15\n      jump\t// in\n    tag_35:\n        /* \"#utility.yul\":1252:1255   */\n      dup3\n        /* \"#utility.yul\":1245:1282   */\n      mstore\n        /* \"#utility.yul\":1170:1288   */\n      pop\n      pop\n      jump\t// out\n        /* \"#utility.yul\":1294:1516   */\n    tag_9:\n        /* \"#utility.yul\":1387:1391   */\n      0x00\n        /* \"#utility.yul\":1425:1427   */\n      0x20\n        /* \"#utility.yul\":1414:1423   */\n      dup3\n        /* \"#utility.yul\":1410:1428   */\n      add\n        /* \"#utility.yul\":1402:1428   */\n      swap1\n      pop\n        /* \"#utility.yul\":1438:1509   */\n      tag_37\n        /* \"#utility.yul\":1506:1507   */\n      0x00\n        /* \"#utility.yul\":1495:1504   */\n      dup4\n        /* \"#utility.yul\":1491:1508   */\n      add\n        /* \"#utility.yul\":1482:1488   */\n      dup5\n        /* \"#utility.yul\":1438:1509   */\n      tag_18\n      jump\t// in\n    tag_37:\n        /* \"#utility.yul\":1294:1516   */\n      swap3\n      swap2\n      pop\n      pop\n      jump\t// out\n\n    auxdata: 0xa2646970667358221220f1be1f08c5114b18ff542a31d03b8f133b7984475e38fff4cdd1d8b531d0e6c764736f6c63430008180033\n}\n",
				"bytecode": {
					"linkReferences": {},
					"object": "608060405234801561000f575f80fd5b5061014c8061001d5f395ff3fe608060405234801561000f575f80fd5b5060043610610029575f3560e01c80633ef5e4451461002d575b5f80fd5b610047600480360381019061004291906100b0565b61005d565b60405161005491906100fd565b60405180910390f35b5f8183101561006e575f805260205ff35b818303805f5260205ff35b5f80fd5b5f819050919050565b61008f8161007d565b8114610099575f80fd5b50565b5f813590506100aa81610086565b92915050565b5f80604083850312156100c6576100c5610079565b5b5f6100d38582860161009c565b92505060206100e48582860161009c565b9150509250929050565b6100f78161007d565b82525050565b5f6020820190506101105f8301846100ee565b9291505056fea2646970667358221220f1be1f08c5114b18ff542a31d03b8f133b7984475e38fff4cdd1d8b531d0e6c764736f6c63430008180033",
					"opcodes": "PUSH1 0x80 PUSH1 0x40 MSTORE CALLVALUE DUP1 ISZERO PUSH2 0xF JUMPI PUSH0 DUP1 REVERT JUMPDEST POP PUSH2 0x14C DUP1 PUSH2 0x1D PUSH0 CODECOPY PUSH0 RETURN INVALID PUSH1 0x80 PUSH1 0x40 MSTORE CALLVALUE DUP1 ISZERO PUSH2 0xF JUMPI PUSH0 DUP1 REVERT JUMPDEST POP PUSH1 0x4 CALLDATASIZE LT PUSH2 0x29 JUMPI PUSH0 CALLDATALOAD PUSH1 0xE0 SHR DUP1 PUSH4 0x3EF5E445 EQ PUSH2 0x2D JUMPI JUMPDEST PUSH0 DUP1 REVERT JUMPDEST PUSH2 0x47 PUSH1 0x4 DUP1 CALLDATASIZE SUB DUP2 ADD SWAP1 PUSH2 0x42 SWAP2 SWAP1 PUSH2 0xB0 JUMP JUMPDEST PUSH2 0x5D JUMP JUMPDEST PUSH1 0x40 MLOAD PUSH2 0x54 SWAP2 SWAP1 PUSH2 0xFD JUMP JUMPDEST PUSH1 0x40 MLOAD DUP1 SWAP2 SUB SWAP1 RETURN JUMPDEST PUSH0 DUP2 DUP4 LT ISZERO PUSH2 0x6E JUMPI PUSH0 DUP1 MSTORE PUSH1 0x20 PUSH0 RETURN JUMPDEST DUP2 DUP4 SUB DUP1 PUSH0 MSTORE PUSH1 0x20 PUSH0 RETURN JUMPDEST PUSH0 DUP1 REVERT JUMPDEST PUSH0 DUP2 SWAP1 POP SWAP2 SWAP1 POP JUMP JUMPDEST PUSH2 0x8F DUP2 PUSH2 0x7D JUMP JUMPDEST DUP2 EQ PUSH2 0x99 JUMPI PUSH0 DUP1 REVERT JUMPDEST POP JUMP JUMPDEST PUSH0 DUP2 CALLDATALOAD SWAP1 POP PUSH2 0xAA DUP2 PUSH2 0x86 JUMP JUMPDEST SWAP3 SWAP2 POP POP JUMP JUMPDEST PUSH0 DUP1 PUSH1 0x40 DUP4 DUP6 SUB SLT ISZERO PUSH2 0xC6 JUMPI PUSH2 0xC5 PUSH2 0x79 JUMP JUMPDEST JUMPDEST PUSH0 PUSH2 0xD3 DUP6 DUP3 DUP7 ADD PUSH2 0x9C JUMP JUMPDEST SWAP3 POP POP PUSH1 0x20 PUSH2 0xE4 DUP6 DUP3 DUP7 ADD PUSH2 0x9C JUMP JUMPDEST SWAP2 POP POP SWAP3 POP SWAP3 SWAP1 POP JUMP JUMPDEST PUSH2 0xF7 DUP2 PUSH2 0x7D JUMP JUMPDEST DUP3 MSTORE POP POP JUMP JUMPDEST PUSH0 PUSH1 0x20 DUP3 ADD SWAP1 POP PUSH2 0x110 PUSH0 DUP4 ADD DUP5 PUSH2 0xEE JUMP JUMPDEST SWAP3 SWAP2 POP POP JUMP INVALID LOG2 PUSH5 0x6970667358 0x22 SLT KECCAK256 CALL 0xBE 0x1F ADDMOD 0xC5 GT 0x4B XOR SELFDESTRUCT SLOAD 0x2A BALANCE 0xD0 EXTCODESIZE DUP16 SGT EXTCODESIZE PUSH26 0x84475E38FFF4CDD1D8B531D0E6C764736F6C6343000818003300 "
				},
				"gasEstimates": {
					"creation": {
						"codeDepositCost": "66400",
						"executionCost": "115",
						"totalCost": "66515"
					},
					"external": {
						"subtract(uint256,uint256)": "infinite"
					}
				},
				"methodIdentifiers": {
					"subtract(uint256,uint256)": "3ef5e445"
				}
			},
			"storageLayout": {
				"storage": [],
				"types": null
			},
			"userdoc": {
				"kind": "user",
				"methods": {},
				"version": 1
			}
		}
	}
}