{
	"Homework/Homework 5/AssemblySum.sol": {
		"AssemblySum": {
			"abi": [
				{
					"inputs": [],
					"name": "addAndStore",
					"outputs": [
						{
							"internalType": "uint256",
							"name": "result",
							"type": "uint256"
						}
					],
					"stateMutability": "pure",
					"type": "function"
				}
			],
			"devdoc": {
				"kind": "dev",
				"methods": {},
				"version": 1
			},
			"evm": {
				"assembly": "    /* \"Homework/Homework 5/AssemblySum.sol\":60:827  contract AssemblySum {\r... */\n  mstore(0x40, 0x80)\n  callvalue\n  dup1\n  iszero\n  tag_1\n  jumpi\n  0x00\n  dup1\n  revert\ntag_1:\n  pop\n  dataSize(sub_0)\n  dup1\n  dataOffset(sub_0)\n  0x00\n  codecopy\n  0x00\n  return\nstop\n\nsub_0: assembly {\n        /* \"Homework/Homework 5/AssemblySum.sol\":60:827  contract AssemblySum {\r... */\n      mstore(0x40, 0x80)\n      callvalue\n      dup1\n      iszero\n      tag_1\n      jumpi\n      0x00\n      dup1\n      revert\n    tag_1:\n      pop\n      jumpi(tag_2, lt(calldatasize, 0x04))\n      shr(0xe0, calldataload(0x00))\n      dup1\n      0xe0365f8a\n      eq\n      tag_3\n      jumpi\n    tag_2:\n      0x00\n      dup1\n      revert\n        /* \"Homework/Homework 5/AssemblySum.sol\":90:824  function addAndStore() public pure returns (uint256 result) {\r... */\n    tag_3:\n      tag_4\n      tag_5\n      jump\t// in\n    tag_4:\n      mload(0x40)\n      tag_6\n      swap2\n      swap1\n      tag_7\n      jump\t// in\n    tag_6:\n      mload(0x40)\n      dup1\n      swap2\n      sub\n      swap1\n      return\n    tag_5:\n        /* \"Homework/Homework 5/AssemblySum.sol\":134:148  uint256 result */\n      0x00\n        /* \"Homework/Homework 5/AssemblySum.sol\":240:244  0x08 */\n      0x08\n        /* \"Homework/Homework 5/AssemblySum.sol\":234:238  0x07 */\n      0x07\n        /* \"Homework/Homework 5/AssemblySum.sol\":230:245  add(0x07, 0x08) */\n      add\n        /* \"Homework/Homework 5/AssemblySum.sol\":375:379  0x40 */\n      0x40\n        /* \"Homework/Homework 5/AssemblySum.sol\":369:380  mload(0x40) */\n      mload\n        /* \"Homework/Homework 5/AssemblySum.sol\":483:486  sum */\n      dup2\n        /* \"Homework/Homework 5/AssemblySum.sol\":464:481  freeMemoryPointer */\n      dup2\n        /* \"Homework/Homework 5/AssemblySum.sol\":457:487  mstore(freeMemoryPointer, sum) */\n      mstore\n        /* \"Homework/Homework 5/AssemblySum.sol\":576:579  sum */\n      dup2\n        /* \"Homework/Homework 5/AssemblySum.sol\":566:579  result := sum */\n      swap3\n      pop\n        /* \"Homework/Homework 5/AssemblySum.sol\":720:724  0x20 */\n      0x20\n        /* \"Homework/Homework 5/AssemblySum.sol\":701:718  freeMemoryPointer */\n      dup2\n        /* \"Homework/Homework 5/AssemblySum.sol\":697:725  add(freeMemoryPointer, 0x20) */\n      add\n        /* \"Homework/Homework 5/AssemblySum.sol\":691:695  0x40 */\n      0x40\n        /* \"Homework/Homework 5/AssemblySum.sol\":684:726  mstore(0x40, add(freeMemoryPointer, 0x20)) */\n      mstore\n        /* \"Homework/Homework 5/AssemblySum.sol\":170:737  {\r... */\n      pop\n      pop\n        /* \"Homework/Homework 5/AssemblySum.sol\":90:824  function addAndStore() public pure returns (uint256 result) {\r... */\n      swap1\n      jump\t// out\n        /* \"#utility.yul\":7:125   */\n    tag_10:\n        /* \"#utility.yul\":94:118   */\n      tag_12\n        /* \"#utility.yul\":112:117   */\n      dup2\n        /* \"#utility.yul\":94:118   */\n      tag_13\n      jump\t// in\n    tag_12:\n        /* \"#utility.yul\":89:92   */\n      dup3\n        /* \"#utility.yul\":82:119   */\n      mstore\n        /* \"#utility.yul\":72:125   */\n      pop\n      pop\n      jump\t// out\n        /* \"#utility.yul\":131:353   */\n    tag_7:\n        /* \"#utility.yul\":224:228   */\n      0x00\n        /* \"#utility.yul\":262:264   */\n      0x20\n        /* \"#utility.yul\":251:260   */\n      dup3\n        /* \"#utility.yul\":247:265   */\n      add\n        /* \"#utility.yul\":239:265   */\n      swap1\n      pop\n        /* \"#utility.yul\":275:346   */\n      tag_15\n        /* \"#utility.yul\":343:344   */\n      0x00\n        /* \"#utility.yul\":332:341   */\n      dup4\n        /* \"#utility.yul\":328:345   */\n      add\n        /* \"#utility.yul\":319:325   */\n      dup5\n        /* \"#utility.yul\":275:346   */\n      tag_10\n      jump\t// in\n    tag_15:\n        /* \"#utility.yul\":229:353   */\n      swap3\n      swap2\n      pop\n      pop\n      jump\t// out\n        /* \"#utility.yul\":359:436   */\n    tag_13:\n        /* \"#utility.yul\":396:403   */\n      0x00\n        /* \"#utility.yul\":425:430   */\n      dup2\n        /* \"#utility.yul\":414:430   */\n      swap1\n      pop\n        /* \"#utility.yul\":404:436   */\n      swap2\n      swap1\n      pop\n      jump\t// out\n\n    auxdata: 0xa264697066735822122073ea8ba504e89c1544cf10241df5ed8c9823bd48f43b3061b28b69e30bd049c764736f6c63430008060033\n}\n",
				"bytecode": {
					"linkReferences": {},
					"object": "608060405234801561001057600080fd5b5060c98061001f6000396000f3fe6080604052348015600f57600080fd5b506004361060285760003560e01c8063e0365f8a14602d575b600080fd5b60336047565b604051603e91906070565b60405180910390f35b6000600860070160405181815281925060208101604052505090565b606a816089565b82525050565b6000602082019050608360008301846063565b92915050565b600081905091905056fea264697066735822122073ea8ba504e89c1544cf10241df5ed8c9823bd48f43b3061b28b69e30bd049c764736f6c63430008060033",
					"opcodes": "PUSH1 0x80 PUSH1 0x40 MSTORE CALLVALUE DUP1 ISZERO PUSH2 0x10 JUMPI PUSH1 0x0 DUP1 REVERT JUMPDEST POP PUSH1 0xC9 DUP1 PUSH2 0x1F PUSH1 0x0 CODECOPY PUSH1 0x0 RETURN INVALID PUSH1 0x80 PUSH1 0x40 MSTORE CALLVALUE DUP1 ISZERO PUSH1 0xF JUMPI PUSH1 0x0 DUP1 REVERT JUMPDEST POP PUSH1 0x4 CALLDATASIZE LT PUSH1 0x28 JUMPI PUSH1 0x0 CALLDATALOAD PUSH1 0xE0 SHR DUP1 PUSH4 0xE0365F8A EQ PUSH1 0x2D JUMPI JUMPDEST PUSH1 0x0 DUP1 REVERT JUMPDEST PUSH1 0x33 PUSH1 0x47 JUMP JUMPDEST PUSH1 0x40 MLOAD PUSH1 0x3E SWAP2 SWAP1 PUSH1 0x70 JUMP JUMPDEST PUSH1 0x40 MLOAD DUP1 SWAP2 SUB SWAP1 RETURN JUMPDEST PUSH1 0x0 PUSH1 0x8 PUSH1 0x7 ADD PUSH1 0x40 MLOAD DUP2 DUP2 MSTORE DUP2 SWAP3 POP PUSH1 0x20 DUP2 ADD PUSH1 0x40 MSTORE POP POP SWAP1 JUMP JUMPDEST PUSH1 0x6A DUP2 PUSH1 0x89 JUMP JUMPDEST DUP3 MSTORE POP POP JUMP JUMPDEST PUSH1 0x0 PUSH1 0x20 DUP3 ADD SWAP1 POP PUSH1 0x83 PUSH1 0x0 DUP4 ADD DUP5 PUSH1 0x63 JUMP JUMPDEST SWAP3 SWAP2 POP POP JUMP JUMPDEST PUSH1 0x0 DUP2 SWAP1 POP SWAP2 SWAP1 POP JUMP INVALID LOG2 PUSH5 0x6970667358 0x22 SLT KECCAK256 PUSH20 0xEA8BA504E89C1544CF10241DF5ED8C9823BD48F4 EXTCODESIZE ADDRESS PUSH2 0xB28B PUSH10 0xE30BD049C764736F6C63 NUMBER STOP ADDMOD MOD STOP CALLER "
				},
				"gasEstimates": {
					"creation": {
						"codeDepositCost": "40200",
						"executionCost": "93",
						"totalCost": "40293"
					},
					"external": {
						"addAndStore()": "361"
					}
				},
				"methodIdentifiers": {
					"addAndStore()": "e0365f8a"
				}
			},
			"storageLayout": {
				"storage": [],
				"types": null
			},
			"userdoc": {
				"kind": "user",
				"methods": {},
				"version": 1
			}
		}
	}
}