{
	"Homework/Homework 5/Assembly_1.sol": {
		"Intro": {
			"abi": [
				{
					"inputs": [],
					"name": "intro",
					"outputs": [
						{
							"internalType": "uint16",
							"name": "",
							"type": "uint16"
						}
					],
					"stateMutability": "pure",
					"type": "function"
				}
			],
			"devdoc": {
				"kind": "dev",
				"methods": {},
				"version": 1
			},
			"evm": {
				"assembly": "    /* \"Homework/Homework 5/Assembly_1.sol\":60:581  contract Intro {\r... */\n  mstore(0x40, 0x80)\n  callvalue\n  dup1\n  iszero\n  tag_1\n  jumpi\n  0x00\n  dup1\n  revert\ntag_1:\n  pop\n  dataSize(sub_0)\n  dup1\n  dataOffset(sub_0)\n  0x00\n  codecopy\n  0x00\n  return\nstop\n\nsub_0: assembly {\n        /* \"Homework/Homework 5/Assembly_1.sol\":60:581  contract Intro {\r... */\n      mstore(0x40, 0x80)\n      callvalue\n      dup1\n      iszero\n      tag_1\n      jumpi\n      0x00\n      dup1\n      revert\n    tag_1:\n      pop\n      jumpi(tag_2, lt(calldatasize, 0x04))\n      shr(0xe0, calldataload(0x00))\n      dup1\n      0x2cc0e390\n      eq\n      tag_3\n      jumpi\n    tag_2:\n      0x00\n      dup1\n      revert\n        /* \"Homework/Homework 5/Assembly_1.sol\":82:578  function intro() public pure returns (uint16) {\r... */\n    tag_3:\n      tag_4\n      tag_5\n      jump\t// in\n    tag_4:\n      mload(0x40)\n      tag_6\n      swap2\n      swap1\n      tag_7\n      jump\t// in\n    tag_6:\n      mload(0x40)\n      dup1\n      swap2\n      sub\n      swap1\n      return\n    tag_5:\n        /* \"Homework/Homework 5/Assembly_1.sol\":120:126  uint16 */\n      0x00\n        /* \"Homework/Homework 5/Assembly_1.sol\":139:150  uint256 mol */\n      dup1\n        /* \"Homework/Homework 5/Assembly_1.sol\":153:156  420 */\n      0x01a4\n        /* \"Homework/Homework 5/Assembly_1.sol\":139:156  uint256 mol = 420 */\n      swap1\n      pop\n        /* \"Homework/Homework 5/Assembly_1.sol\":336:339  mol */\n      dup1\n        /* \"Homework/Homework 5/Assembly_1.sol\":432:440  molValue */\n      dup1\n        /* \"Homework/Homework 5/Assembly_1.sol\":426:430  0x80 */\n      0x80\n        /* \"Homework/Homework 5/Assembly_1.sol\":419:441  mstore(0x80, molValue) */\n      mstore\n        /* \"Homework/Homework 5/Assembly_1.sol\":555:559  0x20 */\n      0x20\n        /* \"Homework/Homework 5/Assembly_1.sol\":549:553  0x80 */\n      0x80\n        /* \"Homework/Homework 5/Assembly_1.sol\":542:560  return(0x80, 0x20) */\n      return\n        /* \"#utility.yul\":7:122   */\n    tag_10:\n        /* \"#utility.yul\":92:115   */\n      tag_12\n        /* \"#utility.yul\":109:114   */\n      dup2\n        /* \"#utility.yul\":92:115   */\n      tag_13\n      jump\t// in\n    tag_12:\n        /* \"#utility.yul\":87:90   */\n      dup3\n        /* \"#utility.yul\":80:116   */\n      mstore\n        /* \"#utility.yul\":70:122   */\n      pop\n      pop\n      jump\t// out\n        /* \"#utility.yul\":128:346   */\n    tag_7:\n        /* \"#utility.yul\":219:223   */\n      0x00\n        /* \"#utility.yul\":257:259   */\n      0x20\n        /* \"#utility.yul\":246:255   */\n      dup3\n        /* \"#utility.yul\":242:260   */\n      add\n        /* \"#utility.yul\":234:260   */\n      swap1\n      pop\n        /* \"#utility.yul\":270:339   */\n      tag_15\n        /* \"#utility.yul\":336:337   */\n      0x00\n        /* \"#utility.yul\":325:334   */\n      dup4\n        /* \"#utility.yul\":321:338   */\n      add\n        /* \"#utility.yul\":312:318   */\n      dup5\n        /* \"#utility.yul\":270:339   */\n      tag_10\n      jump\t// in\n    tag_15:\n        /* \"#utility.yul\":224:346   */\n      swap3\n      swap2\n      pop\n      pop\n      jump\t// out\n        /* \"#utility.yul\":352:441   */\n    tag_13:\n        /* \"#utility.yul\":388:395   */\n      0x00\n        /* \"#utility.yul\":428:434   */\n      0xffff\n        /* \"#utility.yul\":421:426   */\n      dup3\n        /* \"#utility.yul\":417:435   */\n      and\n        /* \"#utility.yul\":406:435   */\n      swap1\n      pop\n        /* \"#utility.yul\":396:441   */\n      swap2\n      swap1\n      pop\n      jump\t// out\n\n    auxdata: 0xa26469706673582212207cd61a819b76f9582ce17c8f4959d27571bbd0efc736d43fc4f684e489a46ea364736f6c63430008040033\n}\n",
				"bytecode": {
					"linkReferences": {},
					"object": "608060405234801561001057600080fd5b5060c48061001f6000396000f3fe6080604052348015600f57600080fd5b506004361060285760003560e01c80632cc0e39014602d575b600080fd5b60336047565b604051603e91906067565b60405180910390f35b6000806101a49050808060805260206080f35b6061816080565b82525050565b6000602082019050607a6000830184605a565b92915050565b600061ffff8216905091905056fea26469706673582212207cd61a819b76f9582ce17c8f4959d27571bbd0efc736d43fc4f684e489a46ea364736f6c63430008040033",
					"opcodes": "PUSH1 0x80 PUSH1 0x40 MSTORE CALLVALUE DUP1 ISZERO PUSH2 0x10 JUMPI PUSH1 0x0 DUP1 REVERT JUMPDEST POP PUSH1 0xC4 DUP1 PUSH2 0x1F PUSH1 0x0 CODECOPY PUSH1 0x0 RETURN INVALID PUSH1 0x80 PUSH1 0x40 MSTORE CALLVALUE DUP1 ISZERO PUSH1 0xF JUMPI PUSH1 0x0 DUP1 REVERT JUMPDEST POP PUSH1 0x4 CALLDATASIZE LT PUSH1 0x28 JUMPI PUSH1 0x0 CALLDATALOAD PUSH1 0xE0 SHR DUP1 PUSH4 0x2CC0E390 EQ PUSH1 0x2D JUMPI JUMPDEST PUSH1 0x0 DUP1 REVERT JUMPDEST PUSH1 0x33 PUSH1 0x47 JUMP JUMPDEST PUSH1 0x40 MLOAD PUSH1 0x3E SWAP2 SWAP1 PUSH1 0x67 JUMP JUMPDEST PUSH1 0x40 MLOAD DUP1 SWAP2 SUB SWAP1 RETURN JUMPDEST PUSH1 0x0 DUP1 PUSH2 0x1A4 SWAP1 POP DUP1 DUP1 PUSH1 0x80 MSTORE PUSH1 0x20 PUSH1 0x80 RETURN JUMPDEST PUSH1 0x61 DUP2 PUSH1 0x80 JUMP JUMPDEST DUP3 MSTORE POP POP JUMP JUMPDEST PUSH1 0x0 PUSH1 0x20 DUP3 ADD SWAP1 POP PUSH1 0x7A PUSH1 0x0 DUP4 ADD DUP5 PUSH1 0x5A JUMP JUMPDEST SWAP3 SWAP2 POP POP JUMP JUMPDEST PUSH1 0x0 PUSH2 0xFFFF DUP3 AND SWAP1 POP SWAP2 SWAP1 POP JUMP INVALID LOG2 PUSH5 0x6970667358 0x22 SLT KECCAK256 PUSH29 0xD61A819B76F9582CE17C8F4959D27571BBD0EFC736D43FC4F684E489A4 PUSH15 0xA364736F6C63430008040033000000 "
				},
				"gasEstimates": {
					"creation": {
						"codeDepositCost": "39200",
						"executionCost": "93",
						"totalCost": "39293"
					},
					"external": {
						"intro()": "151"
					}
				},
				"methodIdentifiers": {
					"intro()": "2cc0e390"
				}
			},
			"storageLayout": {
				"storage": [],
				"types": null
			},
			"userdoc": {
				"kind": "user",
				"methods": {},
				"version": 1
			}
		}
	}
}