{
	"Homework/Homework 5/Assembly_3.sol": {
		"SubOverflow": {
			"abi": [
				{
					"inputs": [
						{
							"internalType": "uint256",
							"name": "x",
							"type": "uint256"
						},
						{
							"internalType": "uint256",
							"name": "y",
							"type": "uint256"
						}
					],
					"name": "subtract",
					"outputs": [
						{
							"internalType": "uint256",
							"name": "",
							"type": "uint256"
						}
					],
					"stateMutability": "pure",
					"type": "function"
				}
			],
			"devdoc": {
				"kind": "dev",
				"methods": {},
				"version": 1
			},
			"evm": {
				"assembly": "    /* \"Homework/Homework 5/Assembly_3.sol\":60:662  contract SubOverflow {\r... */\n  mstore(0x40, 0x80)\n  callvalue\n  dup1\n  iszero\n  tag_1\n  jumpi\n  0x00\n  dup1\n  revert\ntag_1:\n  pop\n  dataSize(sub_0)\n  dup1\n  dataOffset(sub_0)\n  0x00\n  codecopy\n  0x00\n  return\nstop\n\nsub_0: assembly {\n        /* \"Homework/Homework 5/Assembly_3.sol\":60:662  contract SubOverflow {\r... */\n      mstore(0x40, 0x80)\n      callvalue\n      dup1\n      iszero\n      tag_1\n      jumpi\n      0x00\n      dup1\n      revert\n    tag_1:\n      pop\n      jumpi(tag_2, lt(calldatasize, 0x04))\n      shr(0xe0, calldataload(0x00))\n      dup1\n      0x3ef5e445\n      eq\n      tag_3\n      jumpi\n    tag_2:\n      0x00\n      dup1\n      revert\n        /* \"Homework/Homework 5/Assembly_3.sol\":194:659  function subtract(uint256 x, uint256 y) public pure returns (uint256) {\r... */\n    tag_3:\n      tag_4\n      0x04\n      dup1\n      calldatasize\n      sub\n      dup2\n      add\n      swap1\n      tag_5\n      swap2\n      swap1\n      tag_6\n      jump\t// in\n    tag_5:\n      tag_7\n      jump\t// in\n    tag_4:\n      mload(0x40)\n      tag_8\n      swap2\n      swap1\n      tag_9\n      jump\t// in\n    tag_8:\n      mload(0x40)\n      dup1\n      swap2\n      sub\n      swap1\n      return\n    tag_7:\n        /* \"Homework/Homework 5/Assembly_3.sol\":255:262  uint256 */\n      0x00\n        /* \"Homework/Homework 5/Assembly_3.sol\":362:363  y */\n      dup2\n        /* \"Homework/Homework 5/Assembly_3.sol\":359:360  x */\n      dup4\n        /* \"Homework/Homework 5/Assembly_3.sol\":356:364  lt(x, y) */\n      lt\n        /* \"Homework/Homework 5/Assembly_3.sol\":353:355  if */\n      iszero\n      tag_11\n      jumpi\n        /* \"Homework/Homework 5/Assembly_3.sol\":446:447  0 */\n      0x00\n        /* \"Homework/Homework 5/Assembly_3.sol\":441:444  0x0 */\n      dup1\n        /* \"Homework/Homework 5/Assembly_3.sol\":434:448  mstore(0x0, 0) */\n      mstore\n        /* \"Homework/Homework 5/Assembly_3.sol\":478:480  32 */\n      0x20\n        /* \"Homework/Homework 5/Assembly_3.sol\":473:476  0x0 */\n      0x00\n        /* \"Homework/Homework 5/Assembly_3.sol\":466:481  return(0x0, 32) */\n      return\n        /* \"Homework/Homework 5/Assembly_3.sol\":353:355  if */\n    tag_11:\n        /* \"Homework/Homework 5/Assembly_3.sol\":577:578  y */\n      dup2\n        /* \"Homework/Homework 5/Assembly_3.sol\":574:575  x */\n      dup4\n        /* \"Homework/Homework 5/Assembly_3.sol\":570:579  sub(x, y) */\n      sub\n        /* \"Homework/Homework 5/Assembly_3.sol\":605:611  result */\n      dup1\n        /* \"Homework/Homework 5/Assembly_3.sol\":600:603  0x0 */\n      0x00\n        /* \"Homework/Homework 5/Assembly_3.sol\":593:612  mstore(0x0, result) */\n      mstore\n        /* \"Homework/Homework 5/Assembly_3.sol\":638:640  32 */\n      0x20\n        /* \"Homework/Homework 5/Assembly_3.sol\":633:636  0x0 */\n      0x00\n        /* \"Homework/Homework 5/Assembly_3.sol\":626:641  return(0x0, 32) */\n      return\n        /* \"#utility.yul\":7:146   */\n    tag_13:\n        /* \"#utility.yul\":53:58   */\n      0x00\n        /* \"#utility.yul\":91:97   */\n      dup2\n        /* \"#utility.yul\":78:98   */\n      calldataload\n        /* \"#utility.yul\":69:98   */\n      swap1\n      pop\n        /* \"#utility.yul\":107:140   */\n      tag_15\n        /* \"#utility.yul\":134:139   */\n      dup2\n        /* \"#utility.yul\":107:140   */\n      tag_16\n      jump\t// in\n    tag_15:\n        /* \"#utility.yul\":59:146   */\n      swap3\n      swap2\n      pop\n      pop\n      jump\t// out\n        /* \"#utility.yul\":152:559   */\n    tag_6:\n        /* \"#utility.yul\":220:226   */\n      0x00\n        /* \"#utility.yul\":228:234   */\n      dup1\n        /* \"#utility.yul\":277:279   */\n      0x40\n        /* \"#utility.yul\":265:274   */\n      dup4\n        /* \"#utility.yul\":256:263   */\n      dup6\n        /* \"#utility.yul\":252:275   */\n      sub\n        /* \"#utility.yul\":248:280   */\n      slt\n        /* \"#utility.yul\":245:247   */\n      iszero\n      tag_18\n      jumpi\n        /* \"#utility.yul\":293:294   */\n      0x00\n        /* \"#utility.yul\":290:291   */\n      dup1\n        /* \"#utility.yul\":283:295   */\n      revert\n        /* \"#utility.yul\":245:247   */\n    tag_18:\n        /* \"#utility.yul\":336:337   */\n      0x00\n        /* \"#utility.yul\":361:414   */\n      tag_19\n        /* \"#utility.yul\":406:413   */\n      dup6\n        /* \"#utility.yul\":397:403   */\n      dup3\n        /* \"#utility.yul\":386:395   */\n      dup7\n        /* \"#utility.yul\":382:404   */\n      add\n        /* \"#utility.yul\":361:414   */\n      tag_13\n      jump\t// in\n    tag_19:\n        /* \"#utility.yul\":351:414   */\n      swap3\n      pop\n        /* \"#utility.yul\":307:424   */\n      pop\n        /* \"#utility.yul\":463:465   */\n      0x20\n        /* \"#utility.yul\":489:542   */\n      tag_20\n        /* \"#utility.yul\":534:541   */\n      dup6\n        /* \"#utility.yul\":525:531   */\n      dup3\n        /* \"#utility.yul\":514:523   */\n      dup7\n        /* \"#utility.yul\":510:532   */\n      add\n        /* \"#utility.yul\":489:542   */\n      tag_13\n      jump\t// in\n    tag_20:\n        /* \"#utility.yul\":479:542   */\n      swap2\n      pop\n        /* \"#utility.yul\":434:552   */\n      pop\n        /* \"#utility.yul\":235:559   */\n      swap3\n      pop\n      swap3\n      swap1\n      pop\n      jump\t// out\n        /* \"#utility.yul\":565:683   */\n    tag_21:\n        /* \"#utility.yul\":652:676   */\n      tag_23\n        /* \"#utility.yul\":670:675   */\n      dup2\n        /* \"#utility.yul\":652:676   */\n      tag_24\n      jump\t// in\n    tag_23:\n        /* \"#utility.yul\":647:650   */\n      dup3\n        /* \"#utility.yul\":640:677   */\n      mstore\n        /* \"#utility.yul\":630:683   */\n      pop\n      pop\n      jump\t// out\n        /* \"#utility.yul\":689:911   */\n    tag_9:\n        /* \"#utility.yul\":782:786   */\n      0x00\n        /* \"#utility.yul\":820:822   */\n      0x20\n        /* \"#utility.yul\":809:818   */\n      dup3\n        /* \"#utility.yul\":805:823   */\n      add\n        /* \"#utility.yul\":797:823   */\n      swap1\n      pop\n        /* \"#utility.yul\":833:904   */\n      tag_26\n        /* \"#utility.yul\":901:902   */\n      0x00\n        /* \"#utility.yul\":890:899   */\n      dup4\n        /* \"#utility.yul\":886:903   */\n      add\n        /* \"#utility.yul\":877:883   */\n      dup5\n        /* \"#utility.yul\":833:904   */\n      tag_21\n      jump\t// in\n    tag_26:\n        /* \"#utility.yul\":787:911   */\n      swap3\n      swap2\n      pop\n      pop\n      jump\t// out\n        /* \"#utility.yul\":917:994   */\n    tag_24:\n        /* \"#utility.yul\":954:961   */\n      0x00\n        /* \"#utility.yul\":983:988   */\n      dup2\n        /* \"#utility.yul\":972:988   */\n      swap1\n      pop\n        /* \"#utility.yul\":962:994   */\n      swap2\n      swap1\n      pop\n      jump\t// out\n        /* \"#utility.yul\":1000:1122   */\n    tag_16:\n        /* \"#utility.yul\":1073:1097   */\n      tag_29\n        /* \"#utility.yul\":1091:1096   */\n      dup2\n        /* \"#utility.yul\":1073:1097   */\n      tag_24\n      jump\t// in\n    tag_29:\n        /* \"#utility.yul\":1066:1071   */\n      dup2\n        /* \"#utility.yul\":1063:1098   */\n      eq\n        /* \"#utility.yul\":1053:1055   */\n      tag_30\n      jumpi\n        /* \"#utility.yul\":1112:1113   */\n      0x00\n        /* \"#utility.yul\":1109:1110   */\n      dup1\n        /* \"#utility.yul\":1102:1114   */\n      revert\n        /* \"#utility.yul\":1053:1055   */\n    tag_30:\n        /* \"#utility.yul\":1043:1122   */\n      pop\n      jump\t// out\n\n    auxdata: 0xa2646970667358221220765285695bac5c1e4fa08ce6922eb50e1c922ec0412623aab9db94e46b86185264736f6c63430008040033\n}\n",
				"bytecode": {
					"linkReferences": {},
					"object": "608060405234801561001057600080fd5b50610153806100206000396000f3fe608060405234801561001057600080fd5b506004361061002b5760003560e01c80633ef5e44514610030575b600080fd5b61004a60048036038101906100459190610096565b610060565b60405161005791906100e1565b60405180910390f35b600081831015610074576000805260206000f35b8183038060005260206000f35b60008135905061009081610106565b92915050565b600080604083850312156100a957600080fd5b60006100b785828601610081565b92505060206100c885828601610081565b9150509250929050565b6100db816100fc565b82525050565b60006020820190506100f660008301846100d2565b92915050565b6000819050919050565b61010f816100fc565b811461011a57600080fd5b5056fea2646970667358221220765285695bac5c1e4fa08ce6922eb50e1c922ec0412623aab9db94e46b86185264736f6c63430008040033",
					"opcodes": "PUSH1 0x80 PUSH1 0x40 MSTORE CALLVALUE DUP1 ISZERO PUSH2 0x10 JUMPI PUSH1 0x0 DUP1 REVERT JUMPDEST POP PUSH2 0x153 DUP1 PUSH2 0x20 PUSH1 0x0 CODECOPY PUSH1 0x0 RETURN INVALID PUSH1 0x80 PUSH1 0x40 MSTORE CALLVALUE DUP1 ISZERO PUSH2 0x10 JUMPI PUSH1 0x0 DUP1 REVERT JUMPDEST POP PUSH1 0x4 CALLDATASIZE LT PUSH2 0x2B JUMPI PUSH1 0x0 CALLDATALOAD PUSH1 0xE0 SHR DUP1 PUSH4 0x3EF5E445 EQ PUSH2 0x30 JUMPI JUMPDEST PUSH1 0x0 DUP1 REVERT JUMPDEST PUSH2 0x4A PUSH1 0x4 DUP1 CALLDATASIZE SUB DUP2 ADD SWAP1 PUSH2 0x45 SWAP2 SWAP1 PUSH2 0x96 JUMP JUMPDEST PUSH2 0x60 JUMP JUMPDEST PUSH1 0x40 MLOAD PUSH2 0x57 SWAP2 SWAP1 PUSH2 0xE1 JUMP JUMPDEST PUSH1 0x40 MLOAD DUP1 SWAP2 SUB SWAP1 RETURN JUMPDEST PUSH1 0x0 DUP2 DUP4 LT ISZERO PUSH2 0x74 JUMPI PUSH1 0x0 DUP1 MSTORE PUSH1 0x20 PUSH1 0x0 RETURN JUMPDEST DUP2 DUP4 SUB DUP1 PUSH1 0x0 MSTORE PUSH1 0x20 PUSH1 0x0 RETURN JUMPDEST PUSH1 0x0 DUP2 CALLDATALOAD SWAP1 POP PUSH2 0x90 DUP2 PUSH2 0x106 JUMP JUMPDEST SWAP3 SWAP2 POP POP JUMP JUMPDEST PUSH1 0x0 DUP1 PUSH1 0x40 DUP4 DUP6 SUB SLT ISZERO PUSH2 0xA9 JUMPI PUSH1 0x0 DUP1 REVERT JUMPDEST PUSH1 0x0 PUSH2 0xB7 DUP6 DUP3 DUP7 ADD PUSH2 0x81 JUMP JUMPDEST SWAP3 POP POP PUSH1 0x20 PUSH2 0xC8 DUP6 DUP3 DUP7 ADD PUSH2 0x81 JUMP JUMPDEST SWAP2 POP POP SWAP3 POP SWAP3 SWAP1 POP JUMP JUMPDEST PUSH2 0xDB DUP2 PUSH2 0xFC JUMP JUMPDEST DUP3 MSTORE POP POP JUMP JUMPDEST PUSH1 0x0 PUSH1 0x20 DUP3 ADD SWAP1 POP PUSH2 0xF6 PUSH1 0x0 DUP4 ADD DUP5 PUSH2 0xD2 JUMP JUMPDEST SWAP3 SWAP2 POP POP JUMP JUMPDEST PUSH1 0x0 DUP2 SWAP1 POP SWAP2 SWAP1 POP JUMP JUMPDEST PUSH2 0x10F DUP2 PUSH2 0xFC JUMP JUMPDEST DUP2 EQ PUSH2 0x11A JUMPI PUSH1 0x0 DUP1 REVERT JUMPDEST POP JUMP INVALID LOG2 PUSH5 0x6970667358 0x22 SLT KECCAK256 PUSH23 0x5285695BAC5C1E4FA08CE6922EB50E1C922EC0412623AA 0xB9 0xDB SWAP5 0xE4 PUSH12 0x86185264736F6C6343000804 STOP CALLER "
				},
				"gasEstimates": {
					"creation": {
						"codeDepositCost": "67800",
						"executionCost": "117",
						"totalCost": "67917"
					},
					"external": {
						"subtract(uint256,uint256)": "infinite"
					}
				},
				"methodIdentifiers": {
					"subtract(uint256,uint256)": "3ef5e445"
				}
			},
			"storageLayout": {
				"storage": [],
				"types": null
			},
			"userdoc": {
				"kind": "user",
				"methods": {},
				"version": 1
			}
		}
	}
}