{
	"data": {
		"bytecode": {
			"linkReferences": {},
			"object": "608060405234801561001057600080fd5b5061012e806100206000396000f3fe6080604052348015600f57600080fd5b506004361060285760003560e01c806308bb111414602d575b600080fd5b60436004803603810190603f9190607d565b6057565b604051604e919060c1565b60405180910390f35b6000818301806080525060805160206080f35b60008135905060778160e4565b92915050565b60008060408385031215608f57600080fd5b6000609b85828601606a565b925050602060aa85828601606a565b9150509250929050565b60bb8160da565b82525050565b600060208201905060d4600083018460b4565b92915050565b6000819050919050565b60eb8160da565b811460f557600080fd5b5056fea26469706673582212202c8d0bf2bfaea52279cd8b1581b1518a53db69dbef26871819722e4846a7cf2f64736f6c63430008040033",
			"opcodes": "PUSH1 0x80 PUSH1 0x40 MSTORE CALLVALUE DUP1 ISZERO PUSH2 0x10 JUMPI PUSH1 0x0 DUP1 REVERT JUMPDEST POP PUSH2 0x12E DUP1 PUSH2 0x20 PUSH1 0x0 CODECOPY PUSH1 0x0 RETURN INVALID PUSH1 0x80 PUSH1 0x40 MSTORE CALLVALUE DUP1 ISZERO PUSH1 0xF JUMPI PUSH1 0x0 DUP1 REVERT JUMPDEST POP PUSH1 0x4 CALLDATASIZE LT PUSH1 0x28 JUMPI PUSH1 0x0 CALLDATALOAD PUSH1 0xE0 SHR DUP1 PUSH4 0x8BB1114 EQ PUSH1 0x2D JUMPI JUMPDEST PUSH1 0x0 DUP1 REVERT JUMPDEST PUSH1 0x43 PUSH1 0x4 DUP1 CALLDATASIZE SUB DUP2 ADD SWAP1 PUSH1 0x3F SWAP2 SWAP1 PUSH1 0x7D JUMP JUMPDEST PUSH1 0x57 JUMP JUMPDEST PUSH1 0x40 MLOAD PUSH1 0x4E SWAP2 SWAP1 PUSH1 0xC1 JUMP JUMPDEST PUSH1 0x40 MLOAD DUP1 SWAP2 SUB SWAP1 RETURN JUMPDEST PUSH1 0x0 DUP2 DUP4 ADD DUP1 PUSH1 0x80 MSTORE POP PUSH1 0x80 MLOAD PUSH1 0x20 PUSH1 0x80 RETURN JUMPDEST PUSH1 0x0 DUP2 CALLDATALOAD SWAP1 POP PUSH1 0x77 DUP2 PUSH1 0xE4 JUMP JUMPDEST SWAP3 SWAP2 POP POP JUMP JUMPDEST PUSH1 0x0 DUP1 PUSH1 0x40 DUP4 DUP6 SUB SLT ISZERO PUSH1 0x8F JUMPI PUSH1 0x0 DUP1 REVERT JUMPDEST PUSH1 0x0 PUSH1 0x9B DUP6 DUP3 DUP7 ADD PUSH1 0x6A JUMP JUMPDEST SWAP3 POP POP PUSH1 0x20 PUSH1 0xAA DUP6 DUP3 DUP7 ADD PUSH1 0x6A JUMP JUMPDEST SWAP2 POP POP SWAP3 POP SWAP3 SWAP1 POP JUMP JUMPDEST PUSH1 0xBB DUP2 PUSH1 0xDA JUMP JUMPDEST DUP3 MSTORE POP POP JUMP JUMPDEST PUSH1 0x0 PUSH1 0x20 DUP3 ADD SWAP1 POP PUSH1 0xD4 PUSH1 0x0 DUP4 ADD DUP5 PUSH1 0xB4 JUMP JUMPDEST SWAP3 SWAP2 POP POP JUMP JUMPDEST PUSH1 0x0 DUP2 SWAP1 POP SWAP2 SWAP1 POP JUMP JUMPDEST PUSH1 0xEB DUP2 PUSH1 0xDA JUMP JUMPDEST DUP2 EQ PUSH1 0xF5 JUMPI PUSH1 0x0 DUP1 REVERT JUMPDEST POP JUMP INVALID LOG2 PUSH5 0x6970667358 0x22 SLT KECCAK256 0x2C DUP14 SIGNEXTEND CALLCODE 0xBF 0xAE 0xA5 0x22 PUSH26 0xCD8B1581B1518A53DB69DBEF26871819722E4846A7CF2F64736F PUSH13 0x63430008040033000000000000 "
		},
		"gasEstimates": {
			"creation": {
				"codeDepositCost": "60400",
				"executionCost": "111",
				"totalCost": "60511"
			},
			"external": {
				"addAssembly(uint256,uint256)": "infinite"
			}
		},
		"methodIdentifiers": {
			"addAssembly(uint256,uint256)": "08bb1114"
		}
	},
	"abi": [
		{
			"inputs": [
				{
					"internalType": "uint256",
					"name": "x",
					"type": "uint256"
				},
				{
					"internalType": "uint256",
					"name": "y",
					"type": "uint256"
				}
			],
			"name": "addAssembly",
			"outputs": [
				{
					"internalType": "uint256",
					"name": "",
					"type": "uint256"
				}
			],
			"stateMutability": "pure",
			"type": "function"
		}
	]
}